{
  "contractName": "ERC223",
  "abi": [
    {
      "inputs": [
        {
          "internalType": "string",
          "name": "new_name",
          "type": "string"
        },
        {
          "internalType": "string",
          "name": "new_symbol",
          "type": "string"
        },
        {
          "internalType": "uint8",
          "name": "new_decimals",
          "type": "uint8"
        }
      ],
      "stateMutability": "nonpayable",
      "type": "constructor"
    },
    {
      "anonymous": false,
      "inputs": [
        {
          "indexed": true,
          "internalType": "address",
          "name": "from",
          "type": "address"
        },
        {
          "indexed": true,
          "internalType": "address",
          "name": "to",
          "type": "address"
        },
        {
          "indexed": false,
          "internalType": "uint256",
          "name": "value",
          "type": "uint256"
        }
      ],
      "name": "Transfer",
      "type": "event"
    },
    {
      "anonymous": false,
      "inputs": [
        {
          "indexed": false,
          "internalType": "bytes",
          "name": "data",
          "type": "bytes"
        }
      ],
      "name": "TransferData",
      "type": "event"
    },
    {
      "inputs": [
        {
          "internalType": "address",
          "name": "",
          "type": "address"
        }
      ],
      "name": "balances",
      "outputs": [
        {
          "internalType": "uint256",
          "name": "",
          "type": "uint256"
        }
      ],
      "stateMutability": "view",
      "type": "function"
    },
    {
      "inputs": [],
      "name": "standard",
      "outputs": [
        {
          "internalType": "string",
          "name": "",
          "type": "string"
        }
      ],
      "stateMutability": "pure",
      "type": "function"
    },
    {
      "inputs": [],
      "name": "name",
      "outputs": [
        {
          "internalType": "string",
          "name": "",
          "type": "string"
        }
      ],
      "stateMutability": "view",
      "type": "function"
    },
    {
      "inputs": [],
      "name": "symbol",
      "outputs": [
        {
          "internalType": "string",
          "name": "",
          "type": "string"
        }
      ],
      "stateMutability": "view",
      "type": "function"
    },
    {
      "inputs": [],
      "name": "decimals",
      "outputs": [
        {
          "internalType": "uint8",
          "name": "",
          "type": "uint8"
        }
      ],
      "stateMutability": "view",
      "type": "function"
    },
    {
      "inputs": [],
      "name": "totalSupply",
      "outputs": [
        {
          "internalType": "uint256",
          "name": "",
          "type": "uint256"
        }
      ],
      "stateMutability": "view",
      "type": "function"
    },
    {
      "inputs": [
        {
          "internalType": "address",
          "name": "_owner",
          "type": "address"
        }
      ],
      "name": "balanceOf",
      "outputs": [
        {
          "internalType": "uint256",
          "name": "",
          "type": "uint256"
        }
      ],
      "stateMutability": "view",
      "type": "function"
    },
    {
      "inputs": [
        {
          "internalType": "address",
          "name": "_to",
          "type": "address"
        },
        {
          "internalType": "uint256",
          "name": "_value",
          "type": "uint256"
        }
      ],
      "name": "transfer",
      "outputs": [
        {
          "internalType": "bool",
          "name": "success",
          "type": "bool"
        }
      ],
      "stateMutability": "nonpayable",
      "type": "function"
    },
    {
      "inputs": [
        {
          "internalType": "address",
          "name": "_to",
          "type": "address"
        },
        {
          "internalType": "uint256",
          "name": "_value",
          "type": "uint256"
        },
        {
          "internalType": "bytes",
          "name": "_data",
          "type": "bytes"
        }
      ],
      "name": "transfer",
      "outputs": [
        {
          "internalType": "bool",
          "name": "success",
          "type": "bool"
        }
      ],
      "stateMutability": "nonpayable",
      "type": "function"
    }
  ],
  "bytecode": "0x60806040523480156200001157600080fd5b506040516200117538038062001175833981810160405281019062000037919062000318565b82600090805190602001906200004f9291906200008d565b508160019080519060200190620000689291906200008d565b5080600260006101000a81548160ff021916908360ff16021790555050505062000416565b8280546200009b90620003e1565b90600052602060002090601f016020900481019282620000bf57600085556200010b565b82601f10620000da57805160ff19168380011785556200010b565b828001600101855582156200010b579182015b828111156200010a578251825591602001919060010190620000ed565b5b5090506200011a91906200011e565b5090565b5b80821115620001395760008160009055506001016200011f565b5090565b6000604051905090565b600080fd5b600080fd5b600080fd5b600080fd5b6000601f19601f8301169050919050565b7f4e487b7100000000000000000000000000000000000000000000000000000000600052604160045260246000fd5b620001a6826200015b565b810181811067ffffffffffffffff82111715620001c857620001c76200016c565b5b80604052505050565b6000620001dd6200013d565b9050620001eb82826200019b565b919050565b600067ffffffffffffffff8211156200020e576200020d6200016c565b5b62000219826200015b565b9050602081019050919050565b60005b838110156200024657808201518184015260208101905062000229565b8381111562000256576000848401525b50505050565b6000620002736200026d84620001f0565b620001d1565b90508281526020810184848401111562000292576200029162000156565b5b6200029f84828562000226565b509392505050565b600082601f830112620002bf57620002be62000151565b5b8151620002d18482602086016200025c565b91505092915050565b600060ff82169050919050565b620002f281620002da565b8114620002fe57600080fd5b50565b6000815190506200031281620002e7565b92915050565b60008060006060848603121562000334576200033362000147565b5b600084015167ffffffffffffffff8111156200035557620003546200014c565b5b6200036386828701620002a7565b935050602084015167ffffffffffffffff8111156200038757620003866200014c565b5b6200039586828701620002a7565b9250506040620003a88682870162000301565b9150509250925092565b7f4e487b7100000000000000000000000000000000000000000000000000000000600052602260045260246000fd5b60006002820490506001821680620003fa57607f821691505b60208210810362000410576200040f620003b2565b5b50919050565b610d4f80620004266000396000f3fe608060405234801561001057600080fd5b50600436106100935760003560e01c80635a3b7e42116100665780635a3b7e421461012257806370a082311461014057806395d89b4114610170578063a9059cbb1461018e578063be45fd62146101be57610093565b806306fdde031461009857806318160ddd146100b657806327e235e3146100d4578063313ce56714610104575b600080fd5b6100a06101ee565b6040516100ad9190610821565b60405180910390f35b6100be610280565b6040516100cb919061085c565b60405180910390f35b6100ee60048036038101906100e991906108df565b61028a565b6040516100fb919061085c565b60405180910390f35b61010c6102a2565b6040516101199190610928565b60405180910390f35b61012a6102b9565b6040516101379190610821565b60405180910390f35b61015a600480360381019061015591906108df565b6102f6565b604051610167919061085c565b60405180910390f35b61017861033f565b6040516101859190610821565b60405180910390f35b6101a860048036038101906101a3919061096f565b6103d1565b6040516101b591906109ca565b60405180910390f35b6101d860048036038101906101d39190610a4a565b610592565b6040516101e591906109ca565b60405180910390f35b6060600080546101fd90610aed565b80601f016020809104026020016040519081016040528092919081815260200182805461022990610aed565b80156102765780601f1061024b57610100808354040283529160200191610276565b820191906000526020600020905b81548152906001019060200180831161025957829003601f168201915b5050505050905090565b6000600354905090565b60046020528060005260406000206000915090505481565b6000600260009054906101000a900460ff16905090565b60606040518060400160405280600681526020017f6572633232330000000000000000000000000000000000000000000000000000815250905090565b6000600460008373ffffffffffffffffffffffffffffffffffffffff1673ffffffffffffffffffffffffffffffffffffffff168152602001908152602001600020549050919050565b60606001805461034e90610aed565b80601f016020809104026020016040519081016040528092919081815260200182805461037a90610aed565b80156103c75780601f1061039c576101008083540402835291602001916103c7565b820191906000526020600020905b8154815290600101906020018083116103aa57829003601f168201915b5050505050905090565b6000806040518060400160405280600481526020016000815250905082600460003373ffffffffffffffffffffffffffffffffffffffff1673ffffffffffffffffffffffffffffffffffffffff168152602001908152602001600020546104389190610b4d565b600460003373ffffffffffffffffffffffffffffffffffffffff1673ffffffffffffffffffffffffffffffffffffffff1681526020019081526020016000208190555082600460008673ffffffffffffffffffffffffffffffffffffffff1673ffffffffffffffffffffffffffffffffffffffff168152602001908152602001600020546104c69190610b81565b600460008673ffffffffffffffffffffffffffffffffffffffff1673ffffffffffffffffffffffffffffffffffffffff1681526020019081526020016000208190555061051284610775565b15610587578373ffffffffffffffffffffffffffffffffffffffff1663cc3c445b3385846040518463ffffffff1660e01b815260040161055493929190610c3b565b600060405180830381600087803b15801561056e57600080fd5b505af1158015610582573d6000803e3d6000fd5b505050505b600191505092915050565b600083600460003373ffffffffffffffffffffffffffffffffffffffff1673ffffffffffffffffffffffffffffffffffffffff168152602001908152602001600020546105df9190610b4d565b600460003373ffffffffffffffffffffffffffffffffffffffff1673ffffffffffffffffffffffffffffffffffffffff1681526020019081526020016000208190555083600460008773ffffffffffffffffffffffffffffffffffffffff1673ffffffffffffffffffffffffffffffffffffffff1681526020019081526020016000205461066d9190610b81565b600460008773ffffffffffffffffffffffffffffffffffffffff1673ffffffffffffffffffffffffffffffffffffffff168152602001908152602001600020819055506106b985610775565b15610730578473ffffffffffffffffffffffffffffffffffffffff1663cc3c445b338686866040518563ffffffff1660e01b81526004016106fd9493929190610cb5565b600060405180830381600087803b15801561071757600080fd5b505af115801561072b573d6000803e3d6000fd5b505050505b7f3ba9136826ac751de05d770d8d34fa4440ada49a5fb0e9aa1678aece66dad9768383604051610761929190610cf5565b60405180910390a160019050949350505050565b600080823b905060008111915050919050565b600081519050919050565b600082825260208201905092915050565b60005b838110156107c25780820151818401526020810190506107a7565b838111156107d1576000848401525b50505050565b6000601f19601f8301169050919050565b60006107f382610788565b6107fd8185610793565b935061080d8185602086016107a4565b610816816107d7565b840191505092915050565b6000602082019050818103600083015261083b81846107e8565b905092915050565b6000819050919050565b61085681610843565b82525050565b6000602082019050610871600083018461084d565b92915050565b600080fd5b600080fd5b600073ffffffffffffffffffffffffffffffffffffffff82169050919050565b60006108ac82610881565b9050919050565b6108bc816108a1565b81146108c757600080fd5b50565b6000813590506108d9816108b3565b92915050565b6000602082840312156108f5576108f4610877565b5b6000610903848285016108ca565b91505092915050565b600060ff82169050919050565b6109228161090c565b82525050565b600060208201905061093d6000830184610919565b92915050565b61094c81610843565b811461095757600080fd5b50565b60008135905061096981610943565b92915050565b6000806040838503121561098657610985610877565b5b6000610994858286016108ca565b92505060206109a58582860161095a565b9150509250929050565b60008115159050919050565b6109c4816109af565b82525050565b60006020820190506109df60008301846109bb565b92915050565b600080fd5b600080fd5b600080fd5b60008083601f840112610a0a57610a096109e5565b5b8235905067ffffffffffffffff811115610a2757610a266109ea565b5b602083019150836001820283011115610a4357610a426109ef565b5b9250929050565b60008060008060608587031215610a6457610a63610877565b5b6000610a72878288016108ca565b9450506020610a838782880161095a565b935050604085013567ffffffffffffffff811115610aa457610aa361087c565b5b610ab0878288016109f4565b925092505092959194509250565b7f4e487b7100000000000000000000000000000000000000000000000000000000600052602260045260246000fd5b60006002820490506001821680610b0557607f821691505b602082108103610b1857610b17610abe565b5b50919050565b7f4e487b7100000000000000000000000000000000000000000000000000000000600052601160045260246000fd5b6000610b5882610843565b9150610b6383610843565b925082821015610b7657610b75610b1e565b5b828203905092915050565b6000610b8c82610843565b9150610b9783610843565b9250827fffffffffffffffffffffffffffffffffffffffffffffffffffffffffffffffff03821115610bcc57610bcb610b1e565b5b828201905092915050565b610be0816108a1565b82525050565b600081519050919050565b600082825260208201905092915050565b6000610c0d82610be6565b610c178185610bf1565b9350610c278185602086016107a4565b610c30816107d7565b840191505092915050565b6000606082019050610c506000830186610bd7565b610c5d602083018561084d565b8181036040830152610c6f8184610c02565b9050949350505050565b82818337600083830152505050565b6000610c948385610bf1565b9350610ca1838584610c79565b610caa836107d7565b840190509392505050565b6000606082019050610cca6000830187610bd7565b610cd7602083018661084d565b8181036040830152610cea818486610c88565b905095945050505050565b60006020820190508181036000830152610d10818486610c88565b9050939250505056fea2646970667358221220b101fba8fd13bd8448ac8911cb9f3beb865cc3d5c8c20c666c7f26313985f2c964736f6c634300080d0033",
  "immutableReferences": {},
  "source": "// SPDX-License-Identifier: MIT\npragma solidity >=0.4.22 <0.9.0;\nimport \"./interface/IERC223.sol\";\nimport \"../../utils/Address.sol\";\nimport \"../TokenSwap.sol\";\n\ncontract ERC223 is IERC223 {\n\n    string  private _name;\n    string  private _symbol;\n    uint8   private _decimals;\n    uint256 private _totalSupply;\n    mapping(address => uint256) public balances; // List of user balances.\n\n    constructor(string memory new_name, string memory new_symbol, uint8 new_decimals)\n    {\n        _name     = new_name;\n        _symbol   = new_symbol;\n        _decimals = new_decimals;\n    }\n\n    function standard() public pure override returns (string memory)\n    {\n        return \"erc223\";\n    }\n\n    function name() public view override returns (string memory)\n    {\n        return _name;\n    }\n\n    function symbol() public view override returns (string memory)\n    {\n        return _symbol;\n    }\n\n    function decimals() public view override returns (uint8)\n    {\n        return _decimals;\n    }\n\n    function totalSupply() public view override returns (uint256)\n    {\n        return _totalSupply;\n    }\n\n    function balanceOf(address _owner) public view override returns (uint256)\n    {\n        return balances[_owner];\n    }\n    \n    function transfer(address _to, uint256 _value, bytes calldata _data) public override returns (bool success)\n    {\n        balances[msg.sender] = balances[msg.sender] - _value;\n        balances[_to] = balances[_to] + _value;\n        if(Address.isContract(_to)) {\n            TokenSwap(_to).handleReceived(msg.sender, _value, _data);\n        }\n        emit TransferData(_data);\n        return true;\n    }\n\n    function transfer(address _to, uint256 _value) public override returns (bool success)\n    {\n        bytes memory _empty = hex\"00000000\";\n        balances[msg.sender] = balances[msg.sender] - _value;\n        balances[_to] = balances[_to] + _value;\n        if(Address.isContract(_to)) {\n            TokenSwap(_to).handleReceived(msg.sender, _value, _empty);\n        }\n        // emit Transfer(msg.sender, _to, _value);\n        // emit TransferData(_empty);\n        return true;\n    }\n\n    \n\n    function _mint(address account, uint256 amount) internal virtual {\n        require(account != address(0), \"ERC20: mint to the zero address\");\n\n        _totalSupply += amount;\n        balances[account] += amount;\n    }\n}",
  "sourcePath": "/home/namnd/Data/github/my_repo/token-swap/contracts/token/ERC223.sol",
  "compiler": {
    "name": "solc",
    "version": "0.8.13+commit.abaa5c0e.Emscripten.clang"
  },
  "schemaVersion": "3.4.6",
  "updatedAt": "2022-04-30T06:32:40.286Z",
  "devdoc": {
    "kind": "dev",
    "methods": {},
    "version": 1
  },
  "userdoc": {
    "kind": "user",
    "methods": {},
    "version": 1
  }
}