{
  "contractName": "TokenSwap",
  "abi": [
    {
      "anonymous": false,
      "inputs": [
        {
          "indexed": false,
          "internalType": "address",
          "name": "",
          "type": "address"
        },
        {
          "indexed": false,
          "internalType": "uint256",
          "name": "",
          "type": "uint256"
        },
        {
          "indexed": false,
          "internalType": "bytes",
          "name": "",
          "type": "bytes"
        }
      ],
      "name": "DepositToken",
      "type": "event"
    },
    {
      "anonymous": false,
      "inputs": [
        {
          "indexed": false,
          "internalType": "address",
          "name": "",
          "type": "address"
        },
        {
          "indexed": false,
          "internalType": "uint256",
          "name": "",
          "type": "uint256"
        },
        {
          "indexed": false,
          "internalType": "bytes",
          "name": "",
          "type": "bytes"
        }
      ],
      "name": "ReceiveToken",
      "type": "event"
    },
    {
      "anonymous": false,
      "inputs": [
        {
          "indexed": false,
          "internalType": "string",
          "name": "",
          "type": "string"
        },
        {
          "indexed": false,
          "internalType": "address",
          "name": "",
          "type": "address"
        },
        {
          "indexed": false,
          "internalType": "address",
          "name": "",
          "type": "address"
        },
        {
          "indexed": false,
          "internalType": "uint256",
          "name": "",
          "type": "uint256"
        },
        {
          "indexed": false,
          "internalType": "address",
          "name": "",
          "type": "address"
        },
        {
          "indexed": false,
          "internalType": "address",
          "name": "",
          "type": "address"
        },
        {
          "indexed": false,
          "internalType": "uint256",
          "name": "",
          "type": "uint256"
        }
      ],
      "name": "TransferData",
      "type": "event"
    },
    {
      "anonymous": false,
      "inputs": [
        {
          "indexed": false,
          "internalType": "address",
          "name": "",
          "type": "address"
        },
        {
          "indexed": false,
          "internalType": "address",
          "name": "",
          "type": "address"
        },
        {
          "indexed": false,
          "internalType": "uint256",
          "name": "",
          "type": "uint256"
        }
      ],
      "name": "Withdraw",
      "type": "event"
    },
    {
      "inputs": [
        {
          "internalType": "address",
          "name": "_from",
          "type": "address"
        },
        {
          "internalType": "uint256",
          "name": "_value",
          "type": "uint256"
        },
        {
          "internalType": "bytes",
          "name": "_data",
          "type": "bytes"
        }
      ],
      "name": "handleReceived",
      "outputs": [],
      "stateMutability": "nonpayable",
      "type": "function"
    },
    {
      "inputs": [
        {
          "internalType": "address",
          "name": "_token",
          "type": "address"
        },
        {
          "internalType": "uint256",
          "name": "_amount",
          "type": "uint256"
        },
        {
          "internalType": "bytes",
          "name": "_data",
          "type": "bytes"
        }
      ],
      "name": "deposit",
      "outputs": [],
      "stateMutability": "nonpayable",
      "type": "function"
    },
    {
      "inputs": [
        {
          "internalType": "string",
          "name": "sessionId",
          "type": "string"
        }
      ],
      "name": "withdraw223",
      "outputs": [],
      "stateMutability": "nonpayable",
      "type": "function"
    },
    {
      "inputs": [
        {
          "internalType": "string",
          "name": "sessionId",
          "type": "string"
        }
      ],
      "name": "withdraw20",
      "outputs": [],
      "stateMutability": "nonpayable",
      "type": "function"
    }
  ],
  "bytecode": "0x608060405234801561001057600080fd5b506123a2806100206000396000f3fe608060405234801561001057600080fd5b506004361061004c5760003560e01c8063069d289a1461005157806349bdc2b81461006d578063cc3c445b14610089578063d062b1f2146100a5575b600080fd5b61006b6004803603810190610066919061183b565b6100c1565b005b610087600480360381019061008291906119b9565b61041a565b005b6100a3600480360381019061009e91906119b9565b61098c565b005b6100bf60048036038101906100ba919061183b565b610d6f565b005b6000600360003373ffffffffffffffffffffffffffffffffffffffff1673ffffffffffffffffffffffffffffffffffffffff168152602001908152602001600020826040516101109190611aa2565b90815260200160405180910390206001015411610162576040517f08c379a000000000000000000000000000000000000000000000000000000000815260040161015990611b16565b60405180910390fd5b6000600360003373ffffffffffffffffffffffffffffffffffffffff1673ffffffffffffffffffffffffffffffffffffffff168152602001908152602001600020826040516101b19190611aa2565b908152602001604051809103902060000160009054906101000a900473ffffffffffffffffffffffffffffffffffffffff16905060008173ffffffffffffffffffffffffffffffffffffffff1663a9059cbb33600360003373ffffffffffffffffffffffffffffffffffffffff1673ffffffffffffffffffffffffffffffffffffffff168152602001908152602001600020866040516102519190611aa2565b9081526020016040518091039020600101546040518363ffffffff1660e01b8152600401610280929190611b54565b6020604051808303816000875af115801561029f573d6000803e3d6000fd5b505050506040513d601f19601f820116820180604052508101906102c39190611bb5565b905080610305576040517f08c379a00000000000000000000000000000000000000000000000000000000081526004016102fc90611c2e565b60405180910390fd5b6000836040516103159190611aa2565b9081526020016040518091039020600080820160006101000a81549073ffffffffffffffffffffffffffffffffffffffff02191690556001820160006101000a81549073ffffffffffffffffffffffffffffffffffffffff0219169055600282016000905550507f9b1bfa7fa9ee420a16e124f794c35ac9f90472acc99140eb2f6447c714cad8eb3383600360003373ffffffffffffffffffffffffffffffffffffffff1673ffffffffffffffffffffffffffffffffffffffff168152602001908152602001600020866040516103ec9190611aa2565b90815260200160405180910390206001015460405161040d93929190611c4e565b60405180910390a1505050565b818373ffffffffffffffffffffffffffffffffffffffff1663dd62ed3e33306040518363ffffffff1660e01b8152600401610456929190611c85565b602060405180830381865afa158015610473573d6000803e3d6000fd5b505050506040513d601f19601f820116820180604052508101906104979190611cc3565b10156104d8576040517f08c379a00000000000000000000000000000000000000000000000000000000081526004016104cf90611d3c565b60405180910390fd5b6000818060200190518101906104ee9190611dcc565b9050600073ffffffffffffffffffffffffffffffffffffffff166001826040516105189190611aa2565b908152602001604051809103902060000160009054906101000a900473ffffffffffffffffffffffffffffffffffffffff1673ffffffffffffffffffffffffffffffffffffffff1614610615573373ffffffffffffffffffffffffffffffffffffffff1660018260405161058c9190611aa2565b908152602001604051809103902060000160009054906101000a900473ffffffffffffffffffffffffffffffffffffffff1673ffffffffffffffffffffffffffffffffffffffff1614610614576040517f08c379a000000000000000000000000000000000000000000000000000000000815260040161060b90611ead565b60405180910390fd5b5b600060405180606001604052803373ffffffffffffffffffffffffffffffffffffffff1681526020018673ffffffffffffffffffffffffffffffffffffffff168152602001858152509050806001836040516106719190611aa2565b908152602001604051809103902060008201518160000160006101000a81548173ffffffffffffffffffffffffffffffffffffffff021916908373ffffffffffffffffffffffffffffffffffffffff16021790555060208201518160010160006101000a81548173ffffffffffffffffffffffffffffffffffffffff021916908373ffffffffffffffffffffffffffffffffffffffff160217905550604082015181600201559050506000816020015173ffffffffffffffffffffffffffffffffffffffff166323b872dd83600001513085604001516040518463ffffffff1660e01b815260040161076593929190611c4e565b6020604051808303816000875af1158015610784573d6000803e3d6000fd5b505050506040513d601f19601f820116820180604052508101906107a89190611bb5565b9050806107ea576040517f08c379a00000000000000000000000000000000000000000000000000000000081526004016107e190611f19565b60405180910390fd5b7f3babb46352b69ae7cb7cfdece8a0ded283041cbdc6fdcefc98298c4798984c2f33868660405161081d93929190611f8e565b60405180910390a1600060405180604001604052808873ffffffffffffffffffffffffffffffffffffffff16815260200187815250905080600460003373ffffffffffffffffffffffffffffffffffffffff1673ffffffffffffffffffffffffffffffffffffffff168152602001908152602001600020856040516108a29190611aa2565b908152602001604051809103902060008201518160000160006101000a81548173ffffffffffffffffffffffffffffffffffffffff021916908373ffffffffffffffffffffffffffffffffffffffff16021790555060208201518160010155905050600073ffffffffffffffffffffffffffffffffffffffff1660008560405161092c9190611aa2565b908152602001604051809103902060000160009054906101000a900473ffffffffffffffffffffffffffffffffffffffff1673ffffffffffffffffffffffffffffffffffffffff161461098357610982846110c8565b5b50505050505050565b6000818060200190518101906109a29190611dcc565b9050600073ffffffffffffffffffffffffffffffffffffffff166000826040516109cc9190611aa2565b908152602001604051809103902060000160009054906101000a900473ffffffffffffffffffffffffffffffffffffffff1673ffffffffffffffffffffffffffffffffffffffff1614610ac9578373ffffffffffffffffffffffffffffffffffffffff16600082604051610a409190611aa2565b908152602001604051809103902060000160009054906101000a900473ffffffffffffffffffffffffffffffffffffffff1673ffffffffffffffffffffffffffffffffffffffff1614610ac8576040517f08c379a0000000000000000000000000000000000000000000000000000000008152600401610abf90612064565b60405180910390fd5b5b600060405180606001604052808673ffffffffffffffffffffffffffffffffffffffff1681526020013373ffffffffffffffffffffffffffffffffffffffff16815260200185815250905080600083604051610b259190611aa2565b908152602001604051809103902060008201518160000160006101000a81548173ffffffffffffffffffffffffffffffffffffffff021916908373ffffffffffffffffffffffffffffffffffffffff16021790555060208201518160010160006101000a81548173ffffffffffffffffffffffffffffffffffffffff021916908373ffffffffffffffffffffffffffffffffffffffff160217905550604082015181600201559050507f54150900b540754b054a94718ab3af898b1ac6424fa1ec8ecccccb5ea0d4e705858585604051610c0193929190611f8e565b60405180910390a1600060405180604001604052803373ffffffffffffffffffffffffffffffffffffffff16815260200186815250905080600360008873ffffffffffffffffffffffffffffffffffffffff1673ffffffffffffffffffffffffffffffffffffffff16815260200190815260200160002084604051610c869190611aa2565b908152602001604051809103902060008201518160000160006101000a81548173ffffffffffffffffffffffffffffffffffffffff021916908373ffffffffffffffffffffffffffffffffffffffff16021790555060208201518160010155905050600073ffffffffffffffffffffffffffffffffffffffff16600184604051610d109190611aa2565b908152602001604051809103902060000160009054906101000a900473ffffffffffffffffffffffffffffffffffffffff1673ffffffffffffffffffffffffffffffffffffffff1614610d6757610d66836110c8565b5b505050505050565b6000600460003373ffffffffffffffffffffffffffffffffffffffff1673ffffffffffffffffffffffffffffffffffffffff16815260200190815260200160002082604051610dbe9190611aa2565b90815260200160405180910390206001015411610e10576040517f08c379a0000000000000000000000000000000000000000000000000000000008152600401610e0790611b16565b60405180910390fd5b6000600460003373ffffffffffffffffffffffffffffffffffffffff1673ffffffffffffffffffffffffffffffffffffffff16815260200190815260200160002082604051610e5f9190611aa2565b908152602001604051809103902060000160009054906101000a900473ffffffffffffffffffffffffffffffffffffffff16905060008173ffffffffffffffffffffffffffffffffffffffff1663a9059cbb33600460003373ffffffffffffffffffffffffffffffffffffffff1673ffffffffffffffffffffffffffffffffffffffff16815260200190815260200160002086604051610eff9190611aa2565b9081526020016040518091039020600101546040518363ffffffff1660e01b8152600401610f2e929190611b54565b6020604051808303816000875af1158015610f4d573d6000803e3d6000fd5b505050506040513d601f19601f82011682018060405250810190610f719190611bb5565b905080610fb3576040517f08c379a0000000000000000000000000000000000000000000000000000000008152600401610faa906120d0565b60405180910390fd5b600183604051610fc39190611aa2565b9081526020016040518091039020600080820160006101000a81549073ffffffffffffffffffffffffffffffffffffffff02191690556001820160006101000a81549073ffffffffffffffffffffffffffffffffffffffff0219169055600282016000905550507f9b1bfa7fa9ee420a16e124f794c35ac9f90472acc99140eb2f6447c714cad8eb3383600460003373ffffffffffffffffffffffffffffffffffffffff1673ffffffffffffffffffffffffffffffffffffffff1681526020019081526020016000208660405161109a9190611aa2565b9081526020016040518091039020600101546040516110bb93929190611c4e565b60405180910390a1505050565b600015156002826040516110dc9190611aa2565b908152602001604051809103902060009054906101000a900460ff1615151461113a576040517f08c379a000000000000000000000000000000000000000000000000000000000815260040161113190612162565b60405180910390fd5b6000808260405161114b9190611aa2565b90815260200160405180910390206040518060600160405290816000820160009054906101000a900473ffffffffffffffffffffffffffffffffffffffff1673ffffffffffffffffffffffffffffffffffffffff1673ffffffffffffffffffffffffffffffffffffffff1681526020016001820160009054906101000a900473ffffffffffffffffffffffffffffffffffffffff1673ffffffffffffffffffffffffffffffffffffffff1673ffffffffffffffffffffffffffffffffffffffff1681526020016002820154815250509050600060018360405161122e9190611aa2565b90815260200160405180910390206040518060600160405290816000820160009054906101000a900473ffffffffffffffffffffffffffffffffffffffff1673ffffffffffffffffffffffffffffffffffffffff1673ffffffffffffffffffffffffffffffffffffffff1681526020016001820160009054906101000a900473ffffffffffffffffffffffffffffffffffffffff1673ffffffffffffffffffffffffffffffffffffffff1673ffffffffffffffffffffffffffffffffffffffff16815260200160028201548152505090506000826020015173ffffffffffffffffffffffffffffffffffffffff1663a9059cbb836000015185604001516040518363ffffffff1660e01b8152600401611348929190611b54565b6020604051808303816000875af1158015611367573d6000803e3d6000fd5b505050506040513d601f19601f8201168201806040525081019061138b9190611bb5565b9050806113cd576040517f08c379a00000000000000000000000000000000000000000000000000000000081526004016113c4906121ce565b60405180910390fd5b816020015173ffffffffffffffffffffffffffffffffffffffff1663a9059cbb846000015184604001516040518363ffffffff1660e01b8152600401611414929190611b54565b6020604051808303816000875af1158015611433573d6000803e3d6000fd5b505050506040513d601f19601f820116820180604052508101906114579190611bb5565b905080611499576040517f08c379a00000000000000000000000000000000000000000000000000000000081526004016114909061223a565b60405180910390fd5b60016002856040516114ab9190611aa2565b908152602001604051809103902060006101000a81548160ff021916908315150217905550826040015160036000856000015173ffffffffffffffffffffffffffffffffffffffff1673ffffffffffffffffffffffffffffffffffffffff168152602001908152602001600020856040516115269190611aa2565b9081526020016040518091039020600101546115429190612289565b60036000856000015173ffffffffffffffffffffffffffffffffffffffff1673ffffffffffffffffffffffffffffffffffffffff168152602001908152602001600020856040516115939190611aa2565b908152602001604051809103902060010181905550816040015160046000846000015173ffffffffffffffffffffffffffffffffffffffff1673ffffffffffffffffffffffffffffffffffffffff168152602001908152602001600020856040516115fe9190611aa2565b90815260200160405180910390206001015461161a9190612289565b60046000846000015173ffffffffffffffffffffffffffffffffffffffff1673ffffffffffffffffffffffffffffffffffffffff1681526020019081526020016000208560405161166b9190611aa2565b9081526020016040518091039020600101819055507f612285b4f6468622a5aa532f03ac4060b927106ec495115837b9c21cfef0925f848460000151856020015186604001518660000151876020015188604001516040516116d397969594939291906122f6565b60405180910390a150505050565b6000604051905090565b600080fd5b600080fd5b600080fd5b600080fd5b6000601f19601f8301169050919050565b7f4e487b7100000000000000000000000000000000000000000000000000000000600052604160045260246000fd5b611748826116ff565b810181811067ffffffffffffffff8211171561176757611766611710565b5b80604052505050565b600061177a6116e1565b9050611786828261173f565b919050565b600067ffffffffffffffff8211156117a6576117a5611710565b5b6117af826116ff565b9050602081019050919050565b82818337600083830152505050565b60006117de6117d98461178b565b611770565b9050828152602081018484840111156117fa576117f96116fa565b5b6118058482856117bc565b509392505050565b600082601f830112611822576118216116f5565b5b81356118328482602086016117cb565b91505092915050565b600060208284031215611851576118506116eb565b5b600082013567ffffffffffffffff81111561186f5761186e6116f0565b5b61187b8482850161180d565b91505092915050565b600073ffffffffffffffffffffffffffffffffffffffff82169050919050565b60006118af82611884565b9050919050565b6118bf816118a4565b81146118ca57600080fd5b50565b6000813590506118dc816118b6565b92915050565b6000819050919050565b6118f5816118e2565b811461190057600080fd5b50565b600081359050611912816118ec565b92915050565b600067ffffffffffffffff82111561193357611932611710565b5b61193c826116ff565b9050602081019050919050565b600061195c61195784611918565b611770565b905082815260208101848484011115611978576119776116fa565b5b6119838482856117bc565b509392505050565b600082601f8301126119a05761199f6116f5565b5b81356119b0848260208601611949565b91505092915050565b6000806000606084860312156119d2576119d16116eb565b5b60006119e0868287016118cd565b93505060206119f186828701611903565b925050604084013567ffffffffffffffff811115611a1257611a116116f0565b5b611a1e8682870161198b565b9150509250925092565b600081519050919050565b600081905092915050565b60005b83811015611a5c578082015181840152602081019050611a41565b83811115611a6b576000848401525b50505050565b6000611a7c82611a28565b611a868185611a33565b9350611a96818560208601611a3e565b80840191505092915050565b6000611aae8284611a71565b915081905092915050565b600082825260208201905092915050565b7f616d6f756e7420323233206973207a65726f0000000000000000000000000000600082015250565b6000611b00601283611ab9565b9150611b0b82611aca565b602082019050919050565b60006020820190508181036000830152611b2f81611af3565b9050919050565b611b3f816118a4565b82525050565b611b4e816118e2565b82525050565b6000604082019050611b696000830185611b36565b611b766020830184611b45565b9392505050565b60008115159050919050565b611b9281611b7d565b8114611b9d57600080fd5b50565b600081519050611baf81611b89565b92915050565b600060208284031215611bcb57611bca6116eb565b5b6000611bd984828501611ba0565b91505092915050565b7f776974686472617720746f6b656e323233206661696c65640000000000000000600082015250565b6000611c18601883611ab9565b9150611c2382611be2565b602082019050919050565b60006020820190508181036000830152611c4781611c0b565b9050919050565b6000606082019050611c636000830186611b36565b611c706020830185611b36565b611c7d6040830184611b45565b949350505050565b6000604082019050611c9a6000830185611b36565b611ca76020830184611b36565b9392505050565b600081519050611cbd816118ec565b92915050565b600060208284031215611cd957611cd86116eb565b5b6000611ce784828501611cae565b91505092915050565b7f616d6f756e7420746f206c617267650000000000000000000000000000000000600082015250565b6000611d26600f83611ab9565b9150611d3182611cf0565b602082019050919050565b60006020820190508181036000830152611d5581611d19565b9050919050565b6000611d6f611d6a8461178b565b611770565b905082815260208101848484011115611d8b57611d8a6116fa565b5b611d96848285611a3e565b509392505050565b600082601f830112611db357611db26116f5565b5b8151611dc3848260208601611d5c565b91505092915050565b600060208284031215611de257611de16116eb565b5b600082015167ffffffffffffffff811115611e0057611dff6116f0565b5b611e0c84828501611d9e565b91505092915050565b7f43616e6e6f74207265636569766520616e79206164646974696f6e616c20455260008201527f43323020746f6b656e2077697468207468652073616d652073657373696f6e4960208201527f442066726f6d20616e6f74686572206f6e650000000000000000000000000000604082015250565b6000611e97605283611ab9565b9150611ea282611e15565b606082019050919050565b60006020820190508181036000830152611ec681611e8a565b9050919050565b7f6465706f736974206572633230206661696c6564000000000000000000000000600082015250565b6000611f03601483611ab9565b9150611f0e82611ecd565b602082019050919050565b60006020820190508181036000830152611f3281611ef6565b9050919050565b600081519050919050565b600082825260208201905092915050565b6000611f6082611f39565b611f6a8185611f44565b9350611f7a818560208601611a3e565b611f83816116ff565b840191505092915050565b6000606082019050611fa36000830186611b36565b611fb06020830185611b45565b8181036040830152611fc28184611f55565b9050949350505050565b7f43616e6e6f74207265636569766520616e79206164646974696f6e616c20455260008201527f4332323320746f6b656e2077697468207468652073616d652073657373696f6e60208201527f49442066726f6d20616e6f74686572206f6e6500000000000000000000000000604082015250565b600061204e605383611ab9565b915061205982611fcc565b606082019050919050565b6000602082019050818103600083015261207d81612041565b9050919050565b7f776974686472616520746f6b656e3230206661696c6564000000000000000000600082015250565b60006120ba601783611ab9565b91506120c582612084565b602082019050919050565b600060208201905081810360008301526120e9816120ad565b9050919050565b7f696e76616c69642073657373696f6e4964206265636175736520697420616c7260008201527f65616479207573656420696e2070726576696f75732073776170000000000000602082015250565b600061214c603a83611ab9565b9150612157826120f0565b604082019050919050565b6000602082019050818103600083015261217b8161213f565b9050919050565b7f7377617020746f6b656e323233206661696c0000000000000000000000000000600082015250565b60006121b8601283611ab9565b91506121c382612182565b602082019050919050565b600060208201905081810360008301526121e7816121ab565b9050919050565b7f7377617020746f6b656e3230206661696c000000000000000000000000000000600082015250565b6000612224601183611ab9565b915061222f826121ee565b602082019050919050565b6000602082019050818103600083015261225381612217565b9050919050565b7f4e487b7100000000000000000000000000000000000000000000000000000000600052601160045260246000fd5b6000612294826118e2565b915061229f836118e2565b9250828210156122b2576122b161225a565b5b828203905092915050565b60006122c882611a28565b6122d28185611ab9565b93506122e2818560208601611a3e565b6122eb816116ff565b840191505092915050565b600060e0820190508181036000830152612310818a6122bd565b905061231f6020830189611b36565b61232c6040830188611b36565b6123396060830187611b45565b6123466080830186611b36565b61235360a0830185611b36565b61236060c0830184611b45565b9897505050505050505056fea26469706673582212206dd27607c1717bd87d4aff998cc5edc79484d5dabdd76c531d1dca2d4b52ce6064736f6c634300080d0033",
  "immutableReferences": {},
  "source": "// SPDX-License-Identifier: MIT\npragma solidity >=0.4.22 <0.9.0;\nimport \"@openzeppelin/contracts/token/ERC20/IERC20.sol\";\nimport \"./token/interface/IERC223.sol\";\n\n\ncontract TokenSwap {\n\n    struct Tx223{\n        address owner;\n        IERC223 token;\n        uint256 amount;\n    }\n\n    struct Tx20{\n        address owner;\n        IERC20 token;\n        uint256 amount;\n    }\n\n    struct Asset223{\n        IERC223 token;\n        uint256 amount;\n    }\n    struct Asset20{\n        IERC20 token;\n        uint256 amount;\n    }\n\n    // key, val = uuid, Tx223\n    mapping (string => Tx223) private tx223;\n\n    // key, val = uuid, Tx20\n    mapping (string => Tx20) private tx20;\n\n    // key, val = uuid, false\n    mapping (string => bool) private passedSession;\n\n    // key, val = ownerADdress, Asset\n    mapping (address =>  mapping (string => Asset223)) private asset223;\n    mapping (address => mapping (string => Asset20)) private asset20;\n\n    event ReceiveToken(address, uint256, bytes);\n    event DepositToken(address, uint256, bytes);\n    event TransferData(string, address, address, uint256, address, address, uint256);\n    event Withdraw(address, address, uint256);\n\n    // function to handle receiving token 223\n    function handleReceived(address _from, uint256 _value, bytes memory _data) public\n    {\n        string memory sessionId = abi.decode(_data, (string));\n        if (tx223[sessionId].owner != address(0)){\n            require(tx223[sessionId].owner == _from, \"Cannot receive any additional ERC223 token with the same sessionID from another one\");\n        }\n\n        Tx223 memory tx223_tmp = Tx223({owner: _from, token: IERC223(msg.sender), amount: _value});\n        tx223[sessionId] = tx223_tmp;\n        emit ReceiveToken(_from, _value, _data);\n\n        Asset223 memory assetTmp = Asset223({token: IERC223(msg.sender), amount: _value});\n        asset223[_from][sessionId] = assetTmp;\n\n        if(tx20[sessionId].owner != address(0)){\n            triggerSwap(sessionId);\n        }\n    }\n\n\n    // function to handle deposit token 20\n    function deposit(address _token, uint256 _amount, bytes memory _data) public{\n        require(IERC20(_token).allowance(msg.sender, address(this)) >= _amount, \"amount to large\");\n\n        string memory sessionId = abi.decode(_data, (string));\n        if (tx20[sessionId].owner != address(0)){\n            require(tx20[sessionId].owner ==  msg.sender, \"Cannot receive any additional ERC20 token with the same sessionID from another one\");\n        }\n        \n        Tx20 memory tx20_tmp = Tx20({owner: msg.sender, token: IERC20(_token), amount: _amount});\n        tx20[sessionId] = tx20_tmp;\n\n        bool sent = tx20_tmp.token.transferFrom(tx20_tmp.owner, address(this), tx20_tmp.amount);\n\n        require(sent, \"deposit erc20 failed\");\n        emit DepositToken(msg.sender, _amount, _data);\n        Asset20 memory assetTmp = Asset20({token: IERC20(_token), amount: _amount});\n        asset20[msg.sender][sessionId] = assetTmp;\n\n        if(tx223[sessionId].owner != address(0)){\n            triggerSwap(sessionId);\n        }\n    }\n\n    function triggerSwap(string memory sessionId) private{\n        require(passedSession[sessionId] == false, \"invalid sessionId because it already used in previous swap\");\n\n        Tx223 memory trans223 = tx223[sessionId];\n        Tx20 memory trans20 = tx20[sessionId];\n        \n        bool sent = trans223.token.transfer(trans20.owner, trans223.amount);\n        require(sent, \"swap token223 fail\");\n\n        sent = trans20.token.transfer(trans223.owner, trans20.amount);\n        require(sent, \"swap token20 fail\");\n\n        passedSession[sessionId] = true;\n        asset223[trans223.owner][sessionId].amount = asset223[trans223.owner][sessionId].amount - trans223.amount;\n        asset20[trans20.owner][sessionId].amount = asset20[trans20.owner][sessionId].amount - trans20.amount; \n        // delete tx223[sessionId];\n        // delete tx20[sessionId];\n        emit TransferData(sessionId, trans223.owner, address(trans223.token), trans223.amount, trans20.owner, address(trans20.token), trans20.amount);\n    }\n\n    function withdraw223(string memory sessionId) public{\n        require(asset223[msg.sender][sessionId].amount > 0, \"amount 223 is zero\");\n\n        IERC223 token223 = asset223[msg.sender][sessionId].token;\n        bool sent = token223.transfer(msg.sender, asset223[msg.sender][sessionId].amount);\n\n        require(sent, \"withdraw token223 failed\");\n        delete tx223[sessionId];\n        emit Withdraw(msg.sender, address(token223), asset223[msg.sender][sessionId].amount);\n        \n    }\n\n    function withdraw20(string memory sessionId) public{\n        require (asset20[msg.sender][sessionId].amount > 0, \"amount 223 is zero\");\n\n        IERC20 token20 = asset20[msg.sender][sessionId].token;\n        bool sent = token20.transfer(msg.sender, asset20[msg.sender][sessionId].amount);\n\n        require(sent, \"withdrae token20 failed\");\n        delete tx20[sessionId];\n        emit Withdraw(msg.sender, address(token20), asset20[msg.sender][sessionId].amount);\n    }\n}\n\n",
  "sourcePath": "/home/namnd/Data/github/my_repo/token-swap/contracts/TokenSwap.sol",
  "compiler": {
    "name": "solc",
    "version": "0.8.13+commit.abaa5c0e.Emscripten.clang"
  },
  "schemaVersion": "3.4.6",
  "updatedAt": "2022-04-30T06:51:55.948Z",
  "networkType": "ethereum",
  "devdoc": {
    "kind": "dev",
    "methods": {},
    "version": 1
  },
  "userdoc": {
    "kind": "user",
    "methods": {},
    "version": 1
  }
}